S01200004175746F6E6F6D6F75732E73726563D8
S11300000C9434000C9451000C9451000C94510045
S11300100C9451000C9451000C9451000C94510018
S11300200C9451000C9451000C9451000C94510008
S11300300C9451000C9451000C9451000C945100F8
S11300400C9465060C9451000C9451000C945100CE
S11300500C9451000C9451000C9451000C945100D8
S11300600C9451000C94510011241FBECFEFD8E022
S1130070DEBFCDBF11E0A0E0B1E0ECE1F5E102C0EC
S113008005900D92AA33B107D9F721E0AAE3B1E0B4
S113009001C01D92A839B207E1F70E9453000C94E5
S11300A08C0A0C94000041E065E082E00E94740632
S11300B041E064E082E00E94740641E063E082E093
S11300C00E94740641E062E082E00E94740641E00E
S11300D061E082E00E94740641E067E083E00E94F0
S11300E074060E943C060E946C0341E065E082E0D5
S11300F00E94D2060E943D05FFCFEF92FF920F931C
S11301001F93CF93DF9300E010E0C0E0D0E021C064
S1130110F801EE0FFF1FEE0FFF1FEE0DFF1DEE0F98
S1130120FF1FEE0FFF1FE65CFE4F4081518162818D
S11301307381CE010E942F0A24968FEFE81AF80AE1
S113014002C0E12CF12C84E0E816F1040CF30F5FFB
S11301501F4F04301105ACF3DF91CF911F910F9124
S1130160FF90EF900895EF92FF920F931F93CF9318
S1130170DF9300E010E0C0E0D0E021C0CE010E9497
S1130180290AF801EE0FFF1FEE0FFF1FEE0DFF1DF2
S1130190EE0FFF1FEE0FFF1FE65CFE4F60837183BF
S11301A08283938324968FEFE81AF80A02C0E12C25
S11301B0F12C84E0E816F1040CF30F5F1F4F0430B8
S11301C01105ACF3DF91CF911F910F91FF90EF9048
S11301D008950E94190A64E670E00E947409BC0143
S11301E0990F880B990B0E94520820E030E048ECEC
S11301F052E40E94DE07089528E431EE4AE75FE303
S11302000E9407090895CF93DF938AE50E942C0684
S11302102FE986E891E0215080409040E1F700C04A
S113022000000E94300790938301809382014497D9
S113023014F0C0E001C0C1E086EA0E942C062FE958
S113024086E891E0215080409040E1F700C0000032
S11302500E9430079093830180938201449714F0A5
S1130260D0E001C0D1E080E00E942C062FE986E8AE
S113027091E0215080409040E1F700C00000CC2381
S113028011F0D11107C0C11108C0DD2349F081E08C
S113029090E008C083E090E005C082E090E002C0F6
S11302A080E090E0DF91CF9108958F929F92AF927A
S11302B0BF92CF92DF92EF92FF920F931F93CF934F
S11302C0DF93CDB7DEB760970FB6F894DEBF0FBEED
S11302D0CDBF80E090E021C0FB01EE0FFF1FEE0FC9
S11302E0FF1FE80FF91FEE0FFF1FEE0FFF1FE65C65
S11302F0FE4F0081118122813381FC01EE0FFF1F2B
S1130300EE0FFF1F41E050E04C0F5D1FE40FF51F9F
S11303100083118322833383019684309105E4F2B0
S113032000E010E0F12CE12CD12CC12C45C0F801E7
S1130330EE0FFF1FEE0FFF1F81E090E08C0F9D1F5B
S1130340E80FF91FB080A180928083802B2D3A2D75
S1130350492D582D6F2D7E2D8D2D9C2D0E94020927
S1130360181624F4BF2CAE2C9D2C8C2C0F5F1F4F21
S1130370F801EE0FFF1FEE0FFF1F41E050E04C0F9E
S11303805D1FE40FF51FF080E180D280C3802F2D24
S11303903E2D4D2D5C2D6B2D7A2D892D982D0E948F
S11303A06C0720E030E0A9010E940209181624F429
S11303B0FB2CEA2CD92CC82C033011050CF4B7CF34
S11303C06F2D7E2D8D2D9C2D60960FB6F894DEBF7B
S11303D00FBECDBFDF91CF911F910F91FF90EF9092
S11303E0DF90CF90BF90AF909F908F9008950E9420
S11303F030079093830180938201449724F481E031
S113040080937F0102C010927F0183EC99E00197F1
S1130410F1F700C0000080917F0108954F925F9230
S11304206F927F92AF92BF92CF92DF92EF92FF9240
S11304300F931F93CF93DF93CDB7DEB728970FB6F3
S1130440F894DEBF0FBECDBF62957295707F76279C
S1130450607F7627680F791F220F331F220F331F07
S11304608B01020F131FD8014D905D906D907C900D
S113047040928E0150928F0160929001709291018E
S1130480BA010E94550169837A838B839C836093AC
S11304909201709393018093940190939501A60126
S11304A0950160E070E080E89FE30E946C079B0187
S11304B0AC01C301B2010E9407096D837E838F835F
S11304C09887298D3A8D4B8D5C8D69817A818B81DA
S11304D09C810E9407092B013C01B701FF0C880B8A
S11304E0990B0E945208A30192010E946D079B017F
S11304F0AC01C601B5010E9407099B01AC016D81E5
S11305007E818F8198850E946D076093840170932A
S113051085018093860190938701F801608371833C
S11305208283938328960FB6F894DEBF0FBECDBFA7
S1130530DF91CF911F910F91FF90EF90DF90CF90BB
S1130540BF90AF907F906F905F904F9008956F929F
S11305507F928F929F92AF92BF92CF92DF92EF924F
S1130560FF920F931F93CF93DF93CDB7DEB76097BE
S11305700FB6F894DEBF0FBECDBF40E050E020C000
S1130580FB01E295F295F07FFE27E07FFE27E80F5E
S1130590F91F9A01220F331F220F331FE20FF31F9B
S11305A0C080D180E280F380E1E0F0E0EC0FFD1F39
S11305B0E20FF31FC082D182E282F3824F5F5F4F6A
S11305C044305105ECF200E010E0C12CD12CF12CA8
S11305D0E12C45C0F801EE0FFF1FEE0FFF1F81E075
S11305E090E08C0F9D1FE80FF91FB080A1809280CE
S11305F083802B2D3A2D492D582D6C2D7D2D8F2D3B
S11306009E2D0E940209181624F4BC2CAD2C9F2C9C
S11306108E2C0F5F1F4FF801EE0FFF1FEE0FFF1F11
S113062081E090E08C0F9D1FE80FF91FC080D180FE
S1130630F280E3802C2D3D2D4F2D5E2D6B2D7A2DD8
S1130640892D982D0E946C0720E030E0A9010E94BA
S11306500209181624F4CB2CDA2CF92CE82C0330DC
S113066011050CF4B7CF00E010E019C0F801EE0F4B
S1130670FF1FEE0FFF1F81E090E08C0F9D1FE80F1E
S1130680F91F20813181428153816C2D7D2D8F2D65
S11306909E2D0E94D907882331F00F5F1F4F04302D
S11306A0110524F302C0702E612E872D962D6096BD
S11306B00FB6F894DEBF0FBECDBFDF91CF911F916F
S11306C00F91FF90EF90DF90CF90BF90AF909F90ED
S11306D08F907F906F900895AF92BF92CF92DF92E8
S11306E0EF92FF920F931F93CF93DF93C0E0D0E07C
S11306F0AFC110927A0110929701109296010E9454
S1130700C3050E94F70180937F018823C1F3809180
S11307107D0190917E01019683709078992324F451
S113072001978C6F9F6F0196909389018093880144
S113073081E090E090939701809396010E94E900F4
S113074060938A0170938B0180938C0190938D0147
S113075020912E0130912F014091300150913101AF
S11307600E94D9071816ACF00E94190A8370907879
S1130770992324F401978C6F9F6F019690937C01C9
S113078080937B0182E090E090939701809396019F
S113079012C060917D0170917E018AE391E00E9414
S11307A0A70290937C0180937B0182E090E0909378
S11307B097018093960180919601909197010297F9
S11307C009F0DCC080917B0190917C01892B69F553
S11307D041E064E082E00E94D2062FE38DE093E0E2
S11307E0215080409040E1F700C0000040E064E008
S11307F082E00E94D2060E941706E0917D01F091EA
S11308007E01EE0FFF1FEE0FFF1F80917B01909181
S11308107C01E80FF91FEE0FFF1FEC5FFE4F808194
S11308209181909381018093800180917B019091CB
S11308307C01019779F50E94D80541E063E082E0EC
S11308400E94D2062FE38DE093E021508040904037
S1130850E1F700C0000040E063E082E00E94D206BD
S11308600E941706E0917D01F0917E01EE0FFF1FBB
S1130870EE0FFF1F80917B0190917C01E80FF91F1F
S1130880EE0FFF1FEC5FFE4F8081918190938101F9
S11308908093800180917B0190917C01029769F59E
S11308A00E94ED0541E062E082E00E94D2062FE35F
S11308B08DE093E0215080409040E1F700C00000BB
S11308C040E062E082E00E94D206E0917D01F09176
S11308D07E01EE0FFF1FEE0FFF1F80917B019091B1
S11308E07C01E80FF91FEE0FFF1FEC5FFE4F8081C4
S11308F09181909381018093800180917B019091FB
S11309007C01039779F50E94020641E061E082E0F0
S11309100E94D2062FE38DE093E021508040904066
S1130920E1F700C0000040E061E082E00E94D206EE
S11309300E941706E0917D01F0917E01EE0FFF1FEA
S1130940EE0FFF1F80917B0190917C01E80FF91F4E
S1130950EE0FFF1FEC5FFE4F808191819093810128
S11309608093800181E080937A012FE986E891E009
S1130970215080409040E1F700C0000080917A014E
S1130980882309F464C0A0903601B0903701C09068
S11309903801D0903901E0908001F09081012091DC
S11309A07B0130917C0140918801509189016091D3
S11309B07D0170917E01809135018F938091340186
S11309C08F93809133018F93809132018F9304E24E
S11309D011E08AE391E00E940E02809188019091D7
S11309E0890190937E0180937D0160912E01709125
S11309F02F0180913001909131010E94FC0060939D
S1130A002E0170932F0180933001909331012FE9CF
S1130A1086E891E0215080409040E1F700C000005A
S1130A2041E065E082E00E94D2062FE986E891E089
S1130A30215080409040E1F700C0000040E065E0B4
S1130A4082E00E94D2060F900F900F900F90219693
S1130A5080912C0190912D01C817D9070CF449CE2F
S1130A600E947D00DF91CF911F910F91FF90EF9035
S1130A70DF90CF90BF90AF9008950E94B30041E003
S1130A8065E082E00E94D2060E94C3050E94F7013D
S1130A9080937F018823C1F30E9417060E940301FB
S1130AA090937E0180937D01BC018AE391E00E94D2
S1130AB0A70290937C0180937B01892B69F40E94A7
S1130AC0C3052FE38DE093E0215080409040E1F78F
S1130AD000C000000E94170680917B0190917C0168
S1130AE00197B9F40E94D80541E063E082E00E94D6
S1130AF0D2062FE38DE093E0215080409040E1F74F
S1130B0000C0000040E063E082E00E94D2060E9440
S1130B10170680917B0190917C010297A9F40E94B1
S1130B20ED0541E062E082E00E94D2062FE38DE011
S1130B3093E0215080409040E1F700C0000040E085
S1130B4062E082E00E94D20680917B0190917C0158
S1130B50039709F099CF0E94020641E061E082E028
S1130B600E94D2062FE38DE093E021508040904014
S1130B70E1F700C0000040E061E082E00E94D2069C
S1130B800E94170681CF41E060E083E00E94D20614
S1130B9040E061E083E00E94D20641E062E083E04D
S1130BA00E94D20640E063E083E00E94D2060895EA
S1130BB040E060E083E00E94D20641E061E083E02F
S1130BC00E94D20640E062E083E00E94D20641E047
S1130BD063E083E00E94D206089541E060E083E090
S1130BE00E94D20640E061E083E00E94D20640E029
S1130BF062E083E00E94D20641E063E083E00E9469
S1130C00D206089540E060E083E00E94D20641E00D
S1130C1061E083E00E94D20641E062E083E00E944A
S1130C20D20640E063E083E00E94D206089540E0EB
S1130C3060E083E00E94D20640E061E083E00E942D
S1130C40D20640E062E083E00E94D20640E063E026
S1130C5083E00E94D2060895882329F08A3549F05A
S1130C60863A49F403C087EB87BD089583EB87BDBB
S1130C7008958BEB87BD089541E066E083E00E9410
S1130C80740685B58E7F85BD85B58D7F85BD85B59B
S1130C90846085BD84B5816084BD84B5826084BD73
S1130CA085B5877F85BD84B58F7B84BD84B5806819
S1130CB084BD7894EEE6F0E080818160808382EBED
S1130CC086BD80E00E942C0608951F920F920FB6F5
S1130CD00F9211248F9382EB86BD78948F910F909D
S1130CE00FBE0F901F9018959FEF980F933008F048
S1130CF058C0683008F055C041112BC0823089F0CB
S1130D008330D9F0813009F04CC024B181E090E007
S1130D1002C0880F991F6A95E2F78095822384B9EF
S1130D20089527B181E090E002C0880F991F6A9569
S1130D30E2F78095822387B908952AB181E090E093
S1130D4002C0880F991F6A95E2F7809582238AB9B9
S1130D500895413031F5823079F08330C1F081302B
S1130D6001F524B181E090E002C0880F991F6A95D3
S1130D70E2F7822B84B9089527B181E090E002C0A4
S1130D80880F991F6A95E2F7822B87B908952AB1D3
S1130D9081E090E002C0880F991F6A95E2F7822BE8
S1130DA08AB908959FEF980F933008F058C06830BF
S1130DB008F055C0413041F5823081F08330C9F0EC
S1130DC0813009F04CC025B181E090E002C0880F69
S1130DD0991F6A95E2F7822B85B9089528B181E0BD
S1130DE090E002C0880F991F6A95E2F7822B88B9B8
S1130DF008952BB181E090E002C0880F991F6A9595
S1130E00E2F7822B8BB90895411129C0823081F019
S1130E108330D1F0813019F525B181E090E002C032
S1130E20880F991F6A95E2F78095822385B9089502
S1130E3028B181E090E002C0880F991F6A95E2F71B
S1130E408095822388B908952BB181E090E002C097
S1130E50880F991F6A95E2F7809582238BB90895CC
S1130E601092800080E286BB41E067E083E00E944C
S1130E70D20680E18A95F1F700C040E067E083E0A4
S1130E800E94D20681EC80938100B59BFECF8091B5
S1130E9086009091870020E226BB21E82093810000
S1130EA0B59BFECF209186003091870040E246BB7F
S1130EB0109285001092840010928100281B390B37
S1130EC0A8E2B7E80E94AA0920E834E84EE150E01D
S1130ED00E948809C90108955058BB27AA270E9477
S1130EE084070C94C8080E94BA0838F00E94C1080C
S1130EF020F039F49F3F19F426F40C94B7080EF44B
S1130F00E095E7FB0C94B108E92F0E94D90858F347
S1130F10BA17620773078407950720F079F4A6F5DA
S1130F200C94FB080EF4E0950B2EBA2FA02D0B01A8
S1130F30B90190010C01CA01A0011124FF27591B1A
S1130F4099F0593F50F4503E68F11A16F040A22F20
S1130F50232F342F4427585FF3CF46953795279591
S1130F60A795F0405395C9F77EF41F16BA0B620B90
S1130F70730B840BBAF09150A1F0FF0FBB1F661FD7
S1130F80771F881FC2F70EC0BA0F621F731F841F1A
S1130F9048F4879577956795B795F7959E3F08F040
S1130FA0B0CF9395880F08F09927EE0F9795879502
S1130FB008950E948D0808F481E008950E94F207C4
S1130FC00C94C8080E94C10858F00E94BA0840F066
S1130FD029F45F3F29F00C94B10851110C94FC08DA
S1130FE00C94B7080E94D90868F39923B1F35523E8
S1130FF091F3951B550BBB27AA2762177307840728
S113100038F09F5F5F4F220F331F441FAA1FA9F3BD
S113101035D00E2E3AF0E0E832D091505040E695AB
S1131020001CCAF72BD0FE2F29D0660F771F881F0C
S1131030BB1F261737074807AB07B0E809F0BB0BFF
S1131040802DBF01FF2793585F4F3AF09E3F510513
S113105078F00C94B1080C94FC085F3FE4F3983EDC
S1131060D4F3869577956795B795F7959F5FC9F7FC
S1131070880F911D9695879597F90895E1E0660F7D
S1131080771F881FBB1F621773078407BA0720F0F6
S1131090621B730B840BBA0BEE1F88F7E09508955F
S11310A0E89409C097FB3EF49095809570956195FE
S11310B07F4F8F4F9F4F9923A9F0F92F96E9BB27B4
S11310C09395F695879577956795B795F111F8CF30
S11310D0FAF4BB0F11F460FF1BC06F5F7F4F8F4F9B
S11310E09F4F16C0882311F096E911C0772321F091
S11310F09EE8872F762F05C0662371F096E8862F29
S113110070E060E02AF09A95660F771F881FDAF77F
S1131110880F9695879597F90895990F0008550FAC
S1131120AA0BE0E8FEEF16161706E807F907C0F069
S113113012161306E407F50798F0621B730B840B71
S1131140950B39F40A2661F0232B242B252B21F44B
S113115008950A2609F4A140A6958FEF811D811DEB
S1131160089597F99F6780E870E060E008959FEF25
S113117080EC089500240A9416161706180609062A
S1131180089500240A9412161306140605060895F9
S1131190092E0394000C11F4882352F0BB0F40F481
S11311A0BF2B11F460FF04C06F5F7F4F8F4F9F4FC1
S11311B0089557FD9058440F551F59F05F3F71F043
S11311C04795880F97FB991F61F09F3F79F08795AA
S11311D00895121613061406551FF2CF4695F1DF33
S11311E008C0161617061806991FF1CF86957105C3
S11311F0610508940895E894BB2766277727CB01F7
S113120097F908950E948D0808F48FEF08950E94BD
S11312101A090C94C8080E94BA0838F00E94C10840
S113122020F0952311F00C94B1080C94B708112404
S11312300C94FC080E94D90870F3959FC1F3950F94
S113124050E0551F629FF001729FBB27F00DB11D46
S1131250639FAA27F00DB11DAA1F649F6627B00DD6
S1131260A11D661F829F2227B00DA11D621F739FBF
S1131270B00DA11D621F839FA00D611D221F749FCD
S11312803327A00D611D231F849F600D211D822F14
S1131290762F6A2F11249F5750409AF0F1F088233B
S11312A04AF0EE0FFF1FBB1F661F771F881F915068
S11312B05040A9F79E3F510580F00C94B1080C945E
S11312C0FC085F3FE4F3983ED4F3869577956795E1
S11312D0B795F795E7959F5FC1F7FE2B880F911D92
S11312E09695879597F9089597FB072E16F4009421
S11312F007D077FD09D00E94B90907FC05D03EF458
S1131300909581959F4F0895709561957F4F0895AD
S1131310A1E21A2EAA1BBB1BFD010DC0AA1FBB1FF5
S1131320EE1FFF1FA217B307E407F50720F0A21B67
S1131330B30BE40BF50B661F771F881F991F1A94D4
S113134069F760957095809590959B01AC01BD01FE
S1131350CF010895A29FB001B39FC001A39F700D58
S1131360811D1124911DB29F700D811D1124911DA9
S11313700895AA1BBB1B51E107C0AA1FBB1FA617D8
S1131380B70710F0A61BB70B881F991F5A95A9F72A
S113139080959095BC01CD0108958F929F92AF9254
S11313A0BF92CF92DF92EF92FF92CF93DF93EC0143
S11313B0688179818A819B81611571058105910517
S11313C021F464E279ED8BE597E02DE133EF41E020
S11313D050E00E945A0A49015A019B01AC01A7EA54
S11313E0B1E40E94790A6B017C01ACEEB4EFA50173
S11313F094010E94870ADC01CB018C0D9D1DAE1D5A
S1131400BF1DB7FF03C00197A109B0488883998322
S1131410AA83BB839F77DF91CF91FF90EF90DF90FA
S1131420CF90BF90AF909F908F9008950E94CD0968
S1131430089580E091E00E94CD090895A0E0B0E015
S11314408093000190930101A0930201B0930301E2
S11314500895A6E1B0E044E050E00C943E0A242F45
S11314600E944D0A252F0E944D0A0C94370A0E94AF
S11314704C0A272F0C944D0ADC01CB01FC01F9998D
S1131480FECF06C0F2BDE1BDF89A319600B40D92CC
S113149041505040B8F70895262FF999FECF1FBA4E
S11314A092BD81BD20BD0FB6F894FA9AF99A0FBE89
S11314B001960895052E97FB1EF400940E94710A6C
S11314C057FD07D00E94880907FC03D04EF40C9402
S11314D0710A50954095309521953F4F4F4F5F4F7E
S11314E0089590958095709561957F4F8F4F9F4F8C
S11314F008950E94AA09A59F900DB49F900DA49FE2
S1131500800D911D11240895B7FF0C94790A0E944F
S10F1510790A821B930B0895F894FFCF16
S113151C01000000F6FFFEFF0A000800F6FFFEFFC4
S113152C0A00F6FFF6FFFEFFF6FF0A00F6FF0A00BC
S113153CF6FFF6FF01000200030004006400666677
S10D154C663F0000003FCDCCCC3D0B
S9030000FC
